:40000000023DFBEF75F005A42467F582E43401F583E0900085F0EF75F005A4246AF582E43401F583E0900086F0E0FC75F00CA424D6F582E43400F583E0FE900085E0FDC313
:400040009E900087F0ED25E0249EF582E43401F583E0FFA3E0900088CFF0A3EFF0ECF47003020FAD900086E0FF75F00CA424D5F582E43400F583E07C00547FFDE4600302D4
:400080000DF6ED14700302030F14700302030F1470030206B2147003020A5514600724056003020DF6EF75F00CA424DEF582E43400F583122772EA494B7003020DF69000A7
:4000C00086E0FF75F00CA424DEF582E43400F583122772900082122792EF75F00CA424DCF582E43400F583A3E030E060900088E0FEA3E0FF90008EEEF0A3EFF090008212DD
:400100002772122517FDACF0E92402F9E43AFA122517FBAAF0124175900088EEF0A3EFF0900082122772122517FFE92402F9E43AFAE5F08FF012254290008EE0FEA3E0FF87
:40014000900082122772EE8FF0122542900086E075F00CA424DCF582E43400F583A3E020E1030201E6900088E0FEA3E0FF90008EEEF0A3EFF0900082122772E92404F9E4B9
:400180003AFA122517FDACF0900082122772E92406F9E43AFA122517FBAAF01248F9900088EEF0A3EFF0900082122772E92404F9E43AFA122517FF900082122772E9240699
:4001C000F9E43AFAE5F08FF012254290008EE0FEA3E0FF900082122772E92404F9E43AFAEE8FF0122542900086E075F00CA424DCF582E43400F583A3E030E24D900088E0F2
:40020000FEA3E0FF90008EEEF0A3EFF0900082122772E92408F9E43AFA122517FDACF0E4FB123FD6900088EEF0A3EFF090008EE0FEA3E0FF900082122772E92408F9E43A11
:40024000FAEE8FF01225428061900086E075F00CA424DCF582E43400F583A3E030E34B900088E0FEA3E0FF90008EEEF0A3EFF0900082122772E92408F9E43AFA122517FDA6
:40028000ACF07B01123FD6900088EEF0A3EFF090008EE0FEA3E0FF900082122772E92408F9E43AFAEE8FF0122542900086E075F00CA424DCF582E43400F583A3E020E403A4
:4002C000020DF6900088E0FEA3E0FF90008EEEF0A3EFF0900082122772E9240AF9E43AFA122517FDACF0124781900088EEF0A3EFF090008EE0FEA3E0FF900082122772E9C1
:40030000240AF9E43AFAEE8FF0122542020DF6900086E0FF75F00CA424DEF582E43400F583122772900082122792EF75F00CA424DCF582E43400F583A3E020E00302041A47
:40034000900088E0FFA3E090008ECFF0A3EFF0900082122772E92407F9E43AFA1227A7900087E0FF75F002A429F9EA35F0FA122517FDACF0900082122772E9240AF9E43AE4
:40038000FA1227A775F002EFA429F9EA35F0FA122517FBAAF0900088E0FEA3E0FF124175900088EEF0A3EFF0900082122772E92407F9E43AFA1227A7900087E0FF75F00284
:4003C000A429F9EA35F0FA122517FDACF0900082122772E9240AF9E43AFA1227A775F002EFA429F9EA35F0FAEC8DF012254290008EE0FEA3E0FF900082122772E92407F933
:40040000E43AFA1227A7900087E075F002A429F9EA35F0FAEE8FF0122542900086E075F00CA424DCF582E43400F583A3E020E10302050D900088E0FFA3E090008ECFF0A30A
:40044000EFF0900082122772E9240DF9E43AFA1227A7900087E0FF75F002A429F9EA35F0FA122517FDACF0900082122772E92410F9E43AFA1227A775F002EFA429F9EA35BC
:40048000F0FA122517FBAAF0900088E0FEA3E0FF1248F9900088EEF0A3EFF0900082122772E9240DF9E43AFA1227A7900087E0FF75F002A429F9EA35F0FA122517FDACF051
:4004C000900082122772E92410F9E43AFA1227A775F002EFA429F9EA35F0FAEC8DF012254290008EE0FEA3E0FF900082122772E9240DF9E43AFA1227A7900087E075F00286
:40050000A429F9EA35F0FAEE8FF0122542900086E075F00CA424DCF582E43400F583A3E030E277900088E0FFA3E090008ECFF0A3EFF0900082122772E92413F9E43AFA120F
:4005400027A7900087E075F002A429F9EA35F0FA122517FDACF0900088E0FEA3E0FFE4FB123FD6900088EEF0A3EFF090008EE0FEA3E0FF900082122772E92413F9E43AFA37
:400580001227A7900087E075F002A429F9EA35F0FAEE8FF0122542020624900086E075F00CA424DCF582E43400F583A3E030E374900088E0FFA3E090008ECFF0A3EFF09097
:4005C0000082122772E92413F9E43AFA1227A7900087E075F002A429F9EA35F0FA122517FDACF0900088E0FEA3E0FF7B01123FD6900088EEF0A3EFF090008EE0FEA3E0FF98
:40060000900082122772E92413F9E43AFA1227A7900087E075F002A429F9EA35F0FAEE8FF0122542900086E075F00CA424DCF582E43400F583A3E020E403020DF690008820
:40064000E0FFA3E090008ECFF0A3EFF0900082122772E92416F9E43AFA1227A7900087E075F002A429F9EA35F0FA122517FDACF0900088E0FEA3E0FF124781900088EEF08C
:40068000A3EFF090008EE0FEA3E0FF900082122772E92416F9E43AFA1227A7900087E075F002A429F9EA35F0FAEE8FF0122542020DF6900086E0FF75F00CA424DEF582E4EA
:4006C0003400F583122772900082122792EF75F00CA424DCF582E43400F583A3E020E0030207BD900088E0FFA3E090008ECFF0A3EFF0900082122772E92404F9E43AFA12A5
:4007000027A7900087E0FF75F002A429F9EA35F0FA122517FDACF0900082122772E92407F9E43AFA1227A775F002EFA429F9EA35F0FA122517FBAAF0900088E0FEA3E0FF96
:40074000124175900088EEF0A3EFF0900082122772E92404F9E43AFA1227A7900087E0FF75F002A429F9EA35F0FA122517FDACF0900082122772E92407F9E43AFA1227A7A5
:4007800075F002EFA429F9EA35F0FAEC8DF012254290008EE0FEA3E0FF900082122772E92404F9E43AFA1227A7900087E075F002A429F9EA35F0FAEE8FF0122542900086CC
:4007C000E075F00CA424DCF582E43400F583A3E020E1030208B0900088E0FFA3E090008ECFF0A3EFF0900082122772E9240AF9E43AFA1227A7900087E0FF75F002A429F9FB
:40080000EA35F0FA122517FDACF0900082122772E9240DF9E43AFA1227A775F002EFA429F9EA35F0FA122517FBAAF0900088E0FEA3E0FF1248F9900088EEF0A3EFF0900025
:4008400082122772E9240AF9E43AFA1227A7900087E0FF75F002A429F9EA35F0FA122517FDACF0900082122772E9240DF9E43AFA1227A775F002EFA429F9EA35F0FAEC8DCA
:40088000F012254290008EE0FEA3E0FF900082122772E9240AF9E43AFA1227A7900087E075F002A429F9EA35F0FAEE8FF0122542900086E075F00CA424DCF582E43400F5EA
:4008C00083A3E030E277900088E0FFA3E090008ECFF0A3EFF0900082122772E92410F9E43AFA1227A7900087E075F002A429F9EA35F0FA122517FDACF0900088E0FEA3E038
:40090000FFE4FB123FD6900088EEF0A3EFF090008EE0FEA3E0FF900082122772E92410F9E43AFA1227A7900087E075F002A429F9EA35F0FAEE8FF01225420209C7900086F6
:40094000E075F00CA424DCF582E43400F583A3E030E374900088E0FFA3E090008ECFF0A3EFF0900082122772E92410F9E43AFA1227A7900087E075F002A429F9EA35F0FAA0
:40098000122517FDACF0900088E0FEA3E0FF7B01123FD6900088EEF0A3EFF090008EE0FEA3E0FF900082122772E92410F9E43AFA1227A7900087E075F002A429F9EA35F041
:4009C000FAEE8FF0122542900086E075F00CA424DCF582E43400F583A3E020E403020DF6900088E0FFA3E090008ECFF0A3EFF0900082122772E92413F9E43AFA1227A7903F
:400A00000087E075F002A429F9EA35F0FA122517FDACF0900088E0FEA3E0FF124781900088EEF0A3EFF090008EE0FEA3E0FF900082122772E92413F9E43AFA1227A790008C
:400A400087E075F002A429F9EA35F0FAEE8FF0122542020DF6900086E0FF75F00CA424DEF582E43400F583122772EA494B7003020DF6EF75F00CA424DEF582E43400F5832D
:400A8000122772900082122792EF75F00CA424DCF582E43400F583A3E020E003020B64900088E0FFA3E090008ECFF0A3EFF09000821227721227A7900087E0FF75F002A435
:400AC00029F9EA35F0FA122517FDACF0900082122772E92403F9E43AFA1227A775F002EFA429F9EA35F0FA122517FBAAF0900088E0FEA3E0FF124175900088EEF0A3EFF066
:400B00009000821227721227A7900087E0FF75F002A429F9EA35F0FA122517FDACF0900082122772E92403F9E43AFA1227A775F002EFA429F9EA35F0FAEC8DF012254290B0
:400B4000008EE0FEA3E0FF9000821227721227A7900087E075F002A429F9EA35F0FAEE8FF0122542900086E075F00CA424DCF582E43400F583A3E020E103020C57900088C1
:400B8000E0FFA3E090008ECFF0A3EFF0900082122772E92406F9E43AFA1227A7900087E0FF75F002A429F9EA35F0FA122517FDACF0900082122772E92409F9E43AFA122783
:400BC000A775F002EFA429F9EA35F0FA122517FBAAF0900088E0FEA3E0FF1248F9900088EEF0A3EFF0900082122772E92406F9E43AFA1227A7900087E0FF75F002A429F91F
:400C0000EA35F0FA122517FDACF0900082122772E92409F9E43AFA1227A775F002EFA429F9EA35F0FAEC8DF012254290008EE0FEA3E0FF900082122772E92406F9E43AFA9A
:400C40001227A7900087E075F002A429F9EA35F0FAEE8FF0122542900086E075F00CA424DCF582E43400F583A3E030E277900088E0FFA3E090008ECFF0A3EFF09000821266
:400C80002772E9240CF9E43AFA1227A7900087E075F002A429F9EA35F0FA122517FDACF0900088E0FEA3E0FFE4FB123FD6900088EEF0A3EFF090008EE0FEA3E0FF900082F7
:400CC000122772E9240CF9E43AFA1227A7900087E075F002A429F9EA35F0FAEE8FF0122542020D6E900086E075F00CA424DCF582E43400F583A3E030E374900088E0FFA3F9
:400D0000E090008ECFF0A3EFF0900082122772E9240CF9E43AFA1227A7900087E075F002A429F9EA35F0FA122517FDACF0900088E0FEA3E0FF7B01123FD6900088EEF0A3E5
:400D4000EFF090008EE0FEA3E0FF900082122772E9240CF9E43AFA1227A7900087E075F002A429F9EA35F0FAEE8FF0122542900086E075F00CA424DCF582E43400F583A387
:400D8000E030E472900088E0FFA3E090008ECFF0A3EFF0900082122772E9240FF9E43AFA1227A7900087E075F002A429F9EA35F0FA122517FDACF0900088E0FEA3E0FF128C
:400DC0004781900088EEF0A3EFF090008EE0FEA3E0FF900082122772E9240FF9E43AFA1227A7900087E075F002A429F9EA35F0FAEE8FF0122542900088E0FEA3E0FF900050
:400E000085E0FD25E0249EF582E43401F583EEF0A3EFF0ED25E024BFF582E43400F583E0FEA3E0FFFBAA06E4F9F8900088E0FEA3E0FFE4FCFD12256EA312275AE4FFFEFD57
:400E4000FC90008A12272EC31226C1500F900085E024B4F582E43400F583E4F0900086E075F00CA424D9F582E43400F583E0FFE4FCFDFE90008A12272EC31226C1400302E7
:400E80000F4D900085E025E024BFF582E43400F583E0FEA3E0FFE4FCFD780812270FA804A905AA06AB07900085E024A9F582E43400F583E0FFE4FCFDFE1226A690008A12A4
:400EC000275A90008A12272E900088E0FEA3E0FFE4FCFD122561A312275A90008A122722C006C007900085E025E024BFF582E43400F583E0FEA3E0FFFBAA06E4F9F8D00730
:400F0000D00612256E90008A12275A90008A122722900085E0FB24A9F582E43400F583EFF090008A12272278081226FBEB25E024BFF582E43400F583EEF0A3EFF0900085FA
:400F4000E024B4F582E43400F583E4F02290008A122722C007900086E075F00CA424D9F582E43400F583E0FFFBE4FAF9F8D00712256E90008A12275A90008A122722C3EF78
:400F800094FFEE9400501690008A122722900085E024B4F582E43400F583EFF022900085E024B4F582E43400F58374FFF022900081EFF0E0FF75F00CA424DEF582E434009E
:400FC000F583122772900082122792900082122772E92404F9E43AFA1227A7900085122792EF75F00CA424D6F582E43400F583E0900088F0900081E0FB75F00CA424D7F574
:4010000082E43400F583E0900089F0E4A3F0A3F0A374FFF0E4A3F0A3F0A3F0A374FFF0E4FFFEFDFC90009512275AE4FFFEFDFC90009912275AEB75F00CA424D5F582E43452
:4010400000F583E020E003021B7390008AE0FF900088E02F24B4F582E43400F583E0D39400401B90008CE0B4FF0C90008BE0A3F0A3E004F0804490008DE004F0803C900023
:401080008DE0FFD39400403290008FE0FEEFD39E401D90008DE090008FF090008CE090008EF0E490008DF090008C74FFF0800BE490008DF090008C74FFF0900081E075F05A
:4010C0000CA424D5F582E43400F583E030E72A90008BE0FF2401FDE433FC900085122772E92DF9EA3CFA12248190008AF0900089E025E014B50715801C900089E014FF9025
:40110000008BE06F600F90008AE004F090008BE004F002104A90008FE0FF90008DE0FEC39F400D90008FEEF090008CE090008EF090008FE0C3940250030214D6E4900091E2
:40114000F090008FE0FF900091E0FEC39F4003021538900081E075F00CA424D5F582E43400F583E030E762EEFF90008EE02FFFE433FEEF24FFFDEE34FFFC90008512277215
:40118000E92DF9EA3CFA122481900092F0900085122772E92FF9EA3EFA122481900093F0900091E0FF90008EE02FFFE433CF2401CF3400FE900085122772E92FF9EA3EFA4F
:4011C000122481900094F08019900091E0FC90008EE0FE2CFD14900092F0A3EDF0EE2C04A3F0900093E0FF900088E0FE2F24B4F582E43400F583E0FF900081E075F00CA427
:4012000024D8F582E43400F583E0FDEFD39D50030214CD900091E0F9706E900094E0FDEE2D24B4F582E43400F583E0FEEFD39E4008900090E9F0021538900088E0FF900011
:4012400093E0FDEF2DFF24B4F582E43400F583E06E60030214CD900094E0FE900088E02E24A9F582E43400F583E0FE74A92FF582E43400F583E0C39E40030214CD900091BB
:40128000E0900090F002153890008FE014697077900092E0FF900088E0FE2F24B4F582E43400F583E0F9900093E0FFEE2F24B4F582E43400F583E0FFD399400B900091E019
:4012C000900090F0021538EF6960030214CD900092E0FF900088E0FE2F24A9F582E43400F583E0FF900093E0FDEE2D24A9F582E43400F583E0C39F40030214CD900091E0C0
:40130000900090F0021538900094E0FF900088E0FE2F24B4F582E43400F583E0FF900093E0FDEE2D24B4F582E43400F583E0FED39F4025900092E0FF900088E02F24B4F5C4
:4013400082E43400F583E0FFEED39F400B900091E0900090F0021538900094E0F9900088E0FF29FE24B4F582E43400F583E0FD900093E0FCEF2CFF24B4F582E43400F583A2
:40138000E06D600302141374A92EF582E43400F583E0FE74A92FF582E43400F583E0C39E5071900092E0FF900088E0FE2F24B4F582E43400F583E0F9900093E0FFEE2F24AE
:4013C000B4F582E43400F583E0FFD399400B900091E0900090F0021538EF697036900092E0FF900088E0FE2F24A9F582E43400F583E0FF900093E0FDEE2D24A9F582E434EE
:4014000000F583E0C39F500B900091E0900090F0021538900092E0F9900088E0FF29FE24B4F582E43400F583E0FD900093E0FCEF2CFF24B4F582E43400F583E06D600302B8
:4014400014CD74A92EF582E43400F583E0FE74A92FF582E43400F583E0C39E5070900094E0FF900088E0FE2F24B4F582E43400F583E0F9900093E0FFEE2F24B4F582E434A1
:4014800000F583E0FFD399400B900091E0900090F0021538EF697035900094E0FF900088E0FE2F24A9F582E43400F583E0FF900093E0FDEE2D24A9F582E43400F583E0C354
:4014C0009F500A900091E0900090F0806B900091E004F0021141900081E0FF75F00CA424D5F582E43400F583E05480704590008FE06401703D90008EE0FE900093F0900090
:4015000088E02E24B4F582E43400F583E0FEEF75F00CA424D8F582E43400F583E0FFEED39F4007E4900090F0800E90009074FFF0800690009074FFF0900090E0FFC394FF68
:401540004003021B57900081E075F00CA424D5F582E43400F583E030E76090008EE02FFFE433FEEF24FFFDEE34FFFC900085122772E92DF9EA3CFA122481900092F09000A2
:4015800085122772E92FF9EA3EFA122481900093F0900090E0FF90008EE02FFFE433CF2401CF3400FE900085122772E92FF9EA3EFA122481900094F08019900090E0FC90E4
:4015C000008EE0FE2CFD14900092F0A3EDF0EE2C04A3F090008FE0C3940250030217C0A3E07049900094E0FF900088E02F24B4F582E43400F583E0FBFFE4FCFDFE9000955C
:4016000012275AE4FAF9F8900093E0FF900088E02F24B4F582E43400F583E0FFE4FCFDFE12256190009912275A02173890008FE014FFA3E06F7067900092E0FF900088E00D
:401640002F24B4F582E43400F583E0FFE4FCFDFE74FFFBFAF9F812257C90009512275A900092E0FF900088E02F24B4F582E43400F583E0FFFBE4FAF9F8900093E0FF90009C
:4016800088E02F24B4F582E43400F583E0FFE4FCFDFE12256190009912275A021738900092E0FF900088E02F24B4F582E43400F583E0FFFBE4FAF9F8900094E0FF9000888A
:4016C000E02F24B4F582E43400F583E0FFE4FCFDFE12256E90009512275A900093E0FF900088E02F24B4F582E43400F583E0FFFBE4F8900092E0FF900088E02F24B4F582B0
:40170000E43400F583E0FFE4FCFDFE122561A804A905AA06AB07900094E0FF900088E02F24B4F582E43400F583E0FFE4FCFDFE12256190009912275A9000951227227808F4
:4017400012270F90009512275A90009912272E9000951227221243D4A804A905AA06AB07900090E0FF90008EE02F7F00FEE4FCFD12256190008212277212273A12257C90E3
:40178000009912275AE4FFFEFDFC90009912272EC31226C1501590009912272274FFFBFAF9F812257C90009912275A90009912272278101226E890009DEEF0A3EFF0803BB2
:4017C00090008212277212273A900093E0FFE4FCFDFE12257CEF247FFFE43EFEE43DFDE43CFC90009912275A90009912272278081226FB90009DE4F0A3EFF090008212277D
:4018000072E92419F9E43AFA1224816003021914900081E0FF75F00CA424DCF582E43400F583A3E030E52E90009DE0FCA3E0FD900082122772E9241CF9E43AFAEC8DF012E9
:401840002542900082122772E9241AF9E43AFAEC8DF0122542EF75F00CA424DCF582E43400F583A3E030E62E90009DE0FEA3E0FF900082122772E92420F9E43AFAEE8FF063
:40188000122542900082122772E9241EF9E43AFAEE8FF0122542900081E075F00CA424DCF582E43400F583E0FEA3E0FF20E704EE30E01B90009DE0FEA3E0FF900082122767
:4018C00072E92422F9E43AFAEE8FF0122542900081E075F00CA424DCF582E43400F583E0A330E11B90009DE0FEA3E0FF900082122772E92424F9E43AFAEE8FF01225429092
:401900000082122772E92419F9E43AFA740112249A021B7C900081E075F00CA424DCF582E43400F583A3E030E57F90009DE0FEA3E0FFA3EEF0A3EFF0900082122772E924E7
:401940001AF9E43AFA122517FDACF0900082122772E9241CF9E43AFA122517FBAAF012417590009DEEF0A3EFF0900082122772E9241AF9E43AFA122517FF90008212277227
:40198000E9241CF9E43AFAE5F08FF012254290009FE0FEA3E0FF900082122772E9241AF9E43AFAEE8FF0122542900081E075F00CA424DCF582E43400F583A3E030E67F9001
:4019C000009DE0FEA3E0FFA3EEF0A3EFF0900082122772E9241EF9E43AFA122517FDACF0900082122772E92420F9E43AFA122517FBAAF01248F990009DEEF0A3EFF09000B9
:401A000082122772E9241EF9E43AFA122517FF900082122772E92420F9E43AFAE5F08FF012254290009FE0FEA3E0FF900082122772E9241EF9E43AFAEE8FF012254290002A
:401A400081E075F00CA424DCF582E43400F583A3E030E74990009DE0FEA3E0FFA3EEF0A3EFF0900082122772E92422F9E43AFA122517FDACF0E4FB123FD690009DEEF0A3DE
:401A8000EFF0A3E0FEA3E0FF900082122772E92424F9E43AFAEE8FF0122542805D900081E075F00CA424DCF582E43400F583E0A330E04790009DE0FEA3E0FFA3EEF0A3EFFB
:401AC000F0900082122772E92422F9E43AFA122517FDACF07B01123FD690009DEEF0A3EFF0A3E0FEA3E0FF900082122772E92424F9E43AFAEE8FF0122542900081E075F0A4
:401B00000CA424DCF582E43400F583E0A330E16C90009DE0FEA3E0FFA3EEF0A3EFF0900082122772E92424F9E43AFA122517FDACF012478190009DEEF0A3EFF0A3E0FEA3ED
:401B4000E0FF900082122772E92424F9E43AFAEE8FF0122542802590009DE4F0A374FFF0900082122772E92419F9E43AFAE412249A800990009DE4F0A374FFF090009DE0B0
:401B8000FEA3E0FF2290007FEFF0E0FF75F005A42467F582E43401F583E0FE900083F0EF75F005A4246AF582E43401F583E0900084F0E0FC75F00CA424D6F582E43400F54E
:401BC00083E0FDC3EE9D900085F0ECF4700302235890007FE012366D900083E0FF25E0249EF582E43401F583E0FCA3E0FDEF25E024BFF582E43400F583ECF0A3EDF09000D7
:401C000083E0FF24A9F582E43400F583E4F074B42FF582E43400F583E4F0900084E0FF75F00CA424DAF582E43400F583E0FE90007FE075F005A4246BF582E43401F583EEFB
:401C4000F0EF75F00CA424D5F582E43400F583E07E00547FFFE46003022358EF147003021DEE147003021DEE147003021FBB147003022188146007240560030223589000BC
:401C800084E0FF75F00CA424DEF582E43400F583122772EA494B7003022358EF75F00CA424DEF582E43400F583122772900080122792EF75F00CA424DCF582E43400F583EC
:401CC000A3E030E045900083E0FF25E0249EF582E43401F583E0FCA3E0FD900080122772E92402F9E43AFAEC8DF0122542EF25E0249EF582E43401F583E0FEA3E0FF900084
:401D000080122772EE8FF0122542900084E0FF75F00CA424DCF582E43400F583A3E030E14C900083E0FE25E0249EF582E43401F583E0FCA3E0FD900080122772E92406F9C0
:401D4000E43AFAEC8DF0122542EE25E0249EF582E43401F583E0FCA3E0FD900080122772E92404F9E43AFAEC8DF0122542EF75F00CA424DCF582E43400F583E0FEA3E0FF26
:401D800020E20330E327900083E025E0249EF582E43401F583E0FEA3E0FF900080122772E92408F9E43AFAEE8FF0122542900084E075F00CA424DCF582E43400F583A3E068
:401DC00020E403022358900083E025E0249EF582E43401F583E0FEA3E0FF900080122772E9240AF9E43AFAEE8FF012254222900084E0FF75F00CA424DEF582E43400F58341
:401E0000122772900080122792E92419F9E43AFAE412249AEF75F00CA424DCF582E43400F583A3E030E06C900083E0FF25E0249EF582E43401F583E0FCA3E0FD90008012E8
:401E40002772E9240AF9E43AFA1227A7900085E0FE75F002A429F9EA35F0FAEC8DF0122542EF25E0249EF582E43401F583E0FCA3E0FD900080122772E92407F9E43AFA12AA
:401E800027A775F002EEA429F9EA35F0FAEC8DF0122542900084E075F00CA424DCF582E43400F583A3E030E16C900083E0FF25E0249EF582E43401F583E0FCA3E0FD900091
:401EC00080122772E92410F9E43AFA1227A7900085E0FE75F002A429F9EA35F0FAEC8DF0122542EF25E0249EF582E43401F583E0FCA3E0FD900080122772E9240DF9E43A98
:401F0000FA1227A775F002EEA429F9EA35F0FAEC8DF0122542900084E075F00CA424DCF582E43400F583E0FEA3E0FF20E20330E338900083E025E0249EF582E43401F5833F
:401F4000E0FEA3E0FF900080122772E92413F9E43AFA1227A7900085E075F002A429F9EA35F0FAEE8FF0122542900084E075F00CA424DCF582E43400F583A3E020E4030288
:401F80002358900083E025E0249EF582E43401F583E0FEA3E0FF900080122772E92416F9E43AFA1227A7900085E075F002A429F9EA35F0FAEE8FF012254222900084E0FF8F
:401FC00075F00CA424DEF582E43400F583122772900080122792E92416F9E43AFAE412249AEF75F00CA424DCF582E43400F583A3E030E06C900083E0FF25E0249EF582E437
:402000003401F583E0FCA3E0FD900080122772E92407F9E43AFA1227A7900085E0FE75F002A429F9EA35F0FAEC8DF0122542EF25E0249EF582E43401F583E0FCA3E0FD9022
:402040000080122772E92404F9E43AFA1227A775F002EEA429F9EA35F0FAEC8DF0122542900084E075F00CA424DCF582E43400F583A3E030E16C900083E0FF25E0249EF56F
:4020800082E43401F583E0FCA3E0FD900080122772E9240DF9E43AFA1227A7900085E0FE75F002A429F9EA35F0FAEC8DF0122542EF25E0249EF582E43401F583E0FCA3E0C3
:4020C000FD900080122772E9240AF9E43AFA1227A775F002EEA429F9EA35F0FAEC8DF0122542900084E075F00CA424DCF582E43400F583E0FEA3E0FF20E20330E3389000CA
:4021000083E025E0249EF582E43401F583E0FEA3E0FF900080122772E92410F9E43AFA1227A7900085E075F002A429F9EA35F0FAEE8FF0122542900084E075F00CA424DC2A
:40214000F582E43400F583A3E020E403022358900083E025E0249EF582E43401F583E0FEA3E0FF900080122772E92413F9E43AFA1227A7900085E075F002A429F9EA35F032
:40218000FAEE8FF012254222900084E0FF75F00CA424DEF582E43400F583122772EA494B7003022358EF75F00CA424DEF582E43400F583122772900080122792EF75F00C00
:4021C000A424DCF582E43400F583A3E030E065900083E0FF25E0249EF582E43401F583E0FCA3E0FD900080122772E92403F9E43AFA1227A7900085E0FE75F002A429F9EA59
:4022000035F0FAEC8DF0122542EF25E0249EF582E43401F583E0FCA3E0FD9000801227721227A775F002EEA429F9EA35F0FAEC8DF0122542900084E075F00CA424DCF58262
:40224000E43400F583A3E030E16C900083E0FF25E0249EF582E43401F583E0FCA3E0FD900080122772E92409F9E43AFA1227A7900085E0FE75F002A429F9EA35F0FAEC8D4D
:40228000F0122542EF25E0249EF582E43401F583E0FCA3E0FD900080122772E92406F9E43AFA1227A775F002EEA429F9EA35F0FAEC8DF0122542900084E075F00CA424DCCD
:4022C000F582E43400F583E0FEA3E0FF20E20330E338900083E025E0249EF582E43401F583E0FEA3E0FF900080122772E9240CF9E43AFA1227A7900085E075F002A429F91E
:40230000EA35F0FAEE8FF0122542900084E075F00CA424DCF582E43400F583A3E030E438900083E025E0249EF582E43401F583E0FEA3E0FF900080122772E9240FF9E43ABF
:40234000FA1227A7900085E075F002A429F9EA35F0FAEE8FF012254222022476EC5D046005E85904700302246C122437580460F6EC4860F2EC7004FDFEFF22C860DB2481EF
:40238000C85009C398600250060224739850CAF582E9294B4A7005AB8202246275F0007C1A7880C3EF9BEE9AED99400DC3EF9BFFEE9AFEED99FDE842F0DC23ACF0D0E0FF02
:4023C000D0E0FED0E0FDAB8220E7101BEB60BAEC2CFCEF33FFEE33FEED33FD02244EE803F830E705C0F075F000EF2FFFEE33FEED33FD40B830E7C280AA75F020800E75F059
:4024000010800575F0087D007E007F003392D530D5031226B3EC334010EF33FFEE33FEED33FDEC33FCD5F0ED22E5F0247EA2D513CC92E7CDCEFF22E9D2E7C933E833F89293
:40244000D5EDD2E7CD33EC33FC5002B2D522EC30E7100FBF000C0EBE00080DBD00040BEB6014A2D5EB13FCED92E7FD2274FFFCFDFEFF22E480F8A2D574FF13FC7D80E4809B
:40248000EFBB010689828A83E0225002E722BBFE02E32289828A83E49322BB010689828A83F0225002F722BBFE01F322BC000BBE0029EF8DF084FFADF022E4CCF875F008EE
:4024C000EF2FFFEE33FEEC33FCEE9DEC984005FCEE9DFE0FD5F0E9E4CEFD22EDF8F5F0EE8420D21CFEADF075F008EF2FFFED33FD4007985006D5F0F222C398FD0FD5F0EA6E
:4025000022C5F0F8A3E028F0C5F0F8E582158270021583E038F022BB010A89828A83E0F5F0A3E022500687F009E71922BBFE07E3F5F009E3192289828A83E493F5F074017A
:402540009322BB010A89828A83F0E5F0A3F0225006F709A7F01922BBFE06F3E5F009F31922EF2BFFEE3AFEED39FDEC38FC22C3EF9BFFEE9AFEED99FDEC98FC22E88FF0A4C2
:40258000CC8BF0A42CFCE98EF0A42CFC8AF0EDA42CFCEA8EF0A4CDA8F08BF0A42DCC3825F0FDE98FF0A42CCD35F0FCEB8EF0A4FEA9F0EB8FF0A4CFC5F02ECD39FEE43CFC25
:4025C000EAA42DCE35F0FDE43CFC2275F008758200EF2FFFEE33FECD33CDCC33CCC58233C5829BED9AEC99E58298400CF582EE9BFEED9AFDEC99FC0FD5F0D6E4CEFBE4CDFC
:40260000FAE4CCF9A88222B800C1B90059BA002DEC8BF084CFCECDFCE5F0CBF97818EF2FFFEE33FEED33FDEC33FCEB33FB10D703994004EB99FB0FD8E5E4F9FA227818EFA8
:402640002FFFEE33FEED33FDEC33FCC933C910D7059BE99A4007EC9BFCE99AF90FD8E0E4C9FAE4CCFB2275F010EF2FFFEE33FEED33FDCC33CCC833C810D7079BEC9AE89999
:40268000400AED9BFDEC9AFCE899F80FD5F0DAE4CDFBE4CCFAE4C8F922EF5BFFEE5AFEED59FDEC58FC22EF4BFFEE4AFEED49FDEC48FC22C3E49FFFE49EFEE49DFDE49CFC9E
:4026C00022EB9FF5F0EA9E42F0E99D42F0EC6480C864809845F022EB9FF5F0EA9E42F0E99D42F0E89C45F022E8600FECC313FCED13FDEE13FEEF13FFD8F122E86010ECA2CD
:40270000E713FCED13FDEE13FEEF13FFD8F022E8600FEFC333FFEE33FEED33FDEC33FCD8F122E0FCA3E0FDA3E0FEA3E0FF22E0F8A3E0F9A3E0FAA3E0FB22BB010789828AF5
:402740008302272E5005E9F8022869BBFE05E9F802287689828A83022883ECF0A3EDF0A3EEF0A3EFF022A42582F582E5F03583F58322E0FBA3E0FAA3E0F922F8E0FBA3A339
:40278000E0F925F0F0E582158270021583E0FA38F022EBF0A3EAF0A3E9F022E493FB740193FA740293F922BB010789828A830227725005E9F8022893BBFE05E9F80228A5AA
:4027C00089828A8302279BBB011A89828A83D0F0D0E0F8D0E0F9D0E0FAD0E0FBE8C0E0C0F00227925016E9F8D083D082D0E0F9D0E0FAD0E0FBC082C08302289CBBFE16E9C9
:40280000F8D083D082D0E0F9D0E0FAD0E0FBC082C0830228AE22D083D082F8E4937012740193700DA3A393F8740193F5828883E4737402936860EFA3A3A380DFEC8EF0A49B
:40284000CCC5F0CCCDF8EFA4CEC5F02DFDE43CFCE8A42EC8C5F03DFDE43CFCEFA4FFE5F028FEE43DFDE43CFC22E6FB08E6F908E6FA08E6CBF822E2FB08E2F908E2FA08E263
:40288000CBF822E493F8740193F9740293FA740393FB22E6FB08E6FA08E6F922EBF608EAF608E9F622E2FB08E2FA08E2F922EBF208EAF208E9F222900081122792E924027E
:4028C000F9E43AFA122517FF900220E065F07003A3E06F703D900081122772E92404F9E43AFA122517FF900222E0B5F025A3E0B50720900081122772E92415F9E43AFA1298
:402900002481FF13135403FF900228E06F7003022B62900081122772E92402F9E43AFA122517FFAEF0900220EEF0FCA3EFF0FD900081122772E92404F9E43AFA122517FF6F
:40294000AEF0900222EEF0FAA3EFF0FBE4FF12460CEF540EFF905024E054F14FF0900220E0FCA3E0FDA3E0FAA3E0FB7F0112460CEF540EFF905025E054F14FF0900220E079
:40298000FCA3E0FDA3E0FAA3E0FB7F0212460CEF540EFF905026E054F14FF0900220E0FCA3E0FDA3E0FAA3E0FB7F0312460CEF540EFF905027E054F14FF0900220E0FCA326
:4029C000E0FDA3E0FAA3E0FB7F0412460CEF540EFF905030E054F14FF0900220E0FCA3E0FDA3E0FAA3E0FB7F0512460CEF540EFF905031E054F14FF0900220E0FCA3E0FD90
:402A0000A3E0FAA3E0FB7F0612460CEF540EFF905032E054F14FF0900220E0FCA3E0FDA3E0FAA3E0FB7F0712460CEF540EFF905033E054F14FF0900220E0FCA3E0FDA3E0A1
:402A4000FAA3E0FB7F0812460CEF540EFF905034E054F14FF0900220E0FCA3E0FDA3E0FAA3E0FB7F0912460CEF540EFF905035E054F14FF0900220E0FCA3E0FDA3E0FAA33F
:402A8000E0FB7F0A12460CEF540EFF905036E054F14FF0900220E0FCA3E0FDA3E0FAA3E0FB7F0B12460CEF540EFF905037E054F14FF0900220E0FCA3E0FDA3E0FAA3E0FBB9
:402AC0007F0C12460CEF540EFF905062E054F14FF0900220E0FCA3E0FDA3E0FAA3E0FB7F0D12460CEF540EFF905063E054F14FF0900081122772E92415F9E43AFA1224815B
:402B0000FF13135403900228F030E009905016E054F1F0801F900220E0FCA3E0FDA3E0FAA3E0FB7F0E12460CEF540EFF905016E054F14FF0900228E030E108905017E0542A
:402B4000F1F022900220E0FCA3E0FDA3E0FAA3E0FB7F0F12460CEF540EFF905017E054F14FF02290007C7401F0D2AF7F06124BF7124AD2123F3C12438E1245791245AA123E
:402B800048591248831246F8124726124418124458124DF31249DA12406B124D9F9000557401F0900034F090005604F0900035F07B017A00790090002E1227927A007917DB
:402BC0009000311227927A0079349000761227927A00795590007912279290002E1227727D17124B979000761227727D21124B86124DA5EF30E478124DB190007DEFF01285
:402C00004DBD90002E122772EB8A8389827B017A0079006401700A7400658270047400658370187B017A00791790002E1227927A00790090003112279280167B017A00798A
:402C40000090002E1227927A00791790003112279290002E1227727D17124B9790007DE0B41709900031122772123182124BE8124DA5EF20E003022D01124DAB90007DEFE1
:402C8000F0124DB7900076122772EB8A8389827B017A0079346401700A7434658270047400658370187B017A0079559000761227927A00793490007912279280167B017AD5
:402CC0000079349000761227927A0079559000791227929000761227727D21124B8690007DE0B42109900079122772123BAB90007CE0600AE4FF124DC3E490007CF0124BF9
:402D0000D9124DA5EF30E206124BD9124DB790007CE07003022BF0900076122772EB8A8389827B017A0079346401700A7434658270047400658370187B017A007955900076
:402D4000761227927A00793490007912279280167B017A0079349000761227927A0079559000791227929000761227727D21124B86900079122772123BAB124AF9EF600867
:402D80007F02124DC3022BF0E4FF124DC3022BF0224102160041021B0E4402170000000044021C00003E8060370167000001000001010100000202010000030301000004BA
:402DC000040100000506010200060701030007080104000809010500090A0106000A050101004101F100603701B5000100B800000100B800000100B800000100B8000001F4
:402E000000B800000100B800000100B800000100B800000100B800000100B800000100B800560151030003010302030303040507050205030104010505004201F2500E41C4
:402E400001F0034101B4004101EF0056019E000000000000000000000000000000000000000000004301EC01019E6026012B00003F80000000000000000000000000000001
:402E80000000000000000000000000000000000000000000605400D5010005140A0000000001012B050A01140A05050000000000000501140A0505000000000000060114B7
:402EC0000A05050000000000000701140A05050000000000000801140A05050000000000000901140A0505000000000042012900005600BF000000000000000000000000AA
:402F0000000000000000000000004B00A900000000000000000000004B00B40000000000000000000000410238FF4102390041023A0041023B0041023C0041023D0041026B
:402F40003E0041023F004402290000000043022F0000000118004202040000410240004102410041024200410243014102440041024501410246004102470041024800414B
:402F80000249FF41022800420220000042022200004202240000410226004102270300C0E0C083C082C085C084C086758600C093759300C0D075D000C001C002C003C0042B
:402FC000C005C006C0079049D7E0900208F090020EE0FD30E603023163900208E0FE30E37954DFF09049D8E030E052900215E0FF900213E0FEC39F502890020B122772E90B
:403000002EF9E43AFA1224819049D8F09049D77414F0900213E004F0900209E04402F080139049D874FFF09049D77404F0900209E04406F090020E7412F002313E9049D7FC
:403040007410F0900209E04420F090020E7411F09049D6E04410F002313E900208E0FC20E003023132ED6411704C90020AE0FE900214E0FDC39E502C9049D8E0900207F0C4
:403080009049D77410F0900207E0FE90020F122772E92DF9E43AFAEE12249A900214E004F002313E9049D7E4F0900209E054DFF04450F002313E90020EE064127067EC5435
:4030C000027044900215E0FF900213E0FEC39F502190020B122772E92EF9E43AFA1224819049D8F09049D77404F0900213E004F0804C9049D874FFF09049D77404F090025B
:4031000009E04404F080379049D874FFF09049D77404F0900209E054FDF04401F090020E7410F0801990020E7410F09049D7E4F0800C900208E030E7059049D7E0FF900212
:4031400008E030E51E90020EE0B41111900209E054DFF04410F09049D6E054EFF090020E7410F0D007D006D005D004D003D002D001D0D0D093D086D084D085D082D083D0E3
:40318000E03290007E12279290007E1227721228B790007E1227721238CA90007E122772E92414F9E43AFA122481FF124DC390007E122772E92412F9E43AFA122481FF1239
:4031C0004D5B90007E122772E92413F9E43AFA122481FF124D6290007E122772E92415F9E43AFA1224815403FF124DE190007E122772E9240EF9E43AFA122517FFAEF012AB
:403200004C8B90007E122772E92415F9E43AFA122481FFC4540F30E01890007E122772E92406F9E43AFA122517FFAEF0124C97801990007E12277212251730E0067EFF7F57
:40324000FF80047E007F00124C9790007E122772E92415F9E43AFA122481FFC4540F30E11890007E122772E92408F9E43AFA122517FFAEF0124CA3801990007E12277212B8
:40328000251730E1067EFF7FFF80047E007F00124CA390007E122772E92410F9E43AFA122517FFAEF0124CAF90007E122772E92415F9E43AFA122481FFC4540F30E21890DC
:4032C000007E122772E9240AF9E43AFA122517FFAEF0124CBB801990007E12277212251730E2067EFF7FFF80047E007F00124CBB90007E122772E92415F9E43AFA12248189
:40330000FFC4540F30E31790007E122772E9240CF9E43AFA122517FFAEF0124CC72290007E12277212251730E3067EFF7FFF80047E007F00124CC7229048007440F09070C9
:4033400010E4F0907020F090587C04F07B007A4679E8FD124C7FE4F513E513C39407502CE51375F005A42402F582E4344EAF82F5088F09F58312279B8F8285088374039387
:40338000FC740493FD12495F051380CDE4F513E513C394055046E51375F007A42400F582E4345FAF82F50A8F0BF58312279B8B0C8A0D890E8F82850A83740393FE740493E9
:4033C0008E0FF510740593F511740693F512AD10AC0FFFAE1112469C051380B37E4E7F251246CA7B007A5879727D007C01124BCA7B007A5879487D037C00124BCA7B007A7F
:4034000058794A7D037C01124BCA7B007A58794C7D037C02124BCA9060127480F0124754124A2B7C5E7DAD7B007A5179027F087E0012469C7C5E7DB57B007A5179127F08DA
:403440007E0012469C7C5E7DBD7B007A5179C07F0A7E0012469C7C5E7DC77B007A5179CB7F057E0012469C7C5E7DCC7B007A5179F27F087E0012469C7C5E7DD47B007A5170
:4034800079207F0A7E0012469C7C5E7DDE7B007A5179327F087E0012469C7C5E7DE67B007A5179407F0A7E0012469C7C5E7DF07B007A5179527F087E0012469C7C5E7DF882
:4034C0007B007A5179627F087E0012469C9044F47401F0904800E4F0123C899048007440F01241E422900081EFF0E0FF75F005A42467F582E43401F583E0FEEF75F005A4E2
:40350000246AF582E43401F583E0FF9000827401F0EFF4700302364AE0FDEE5407FCEDA804088002C333D8FCFD900082F0EE131313541F2429F582E43401F583E05D607CB1
:40354000EF75F00CA424DBF582E43400F583E0FDEF75F00CA424D8F582E43400F583E0C39DFD74B42EF582E43400F583E0C39D400302364AEE131313541F2429F582E43448
:4035800001F583C083C082E0FD900082E0F4FCED5CD082D083F0EF75F00CA424DAF582E43400F583E0FD900081E075F005A4246BF582E43401F583EDF002364AEF75F00C35
:4035C000A424DBF582E43400F583E0FDEF75F00CA424D8F582E43400F583E02DFD74B42EF582E43400F583E0D39D403B900081E075F005A4246BF582E43401F583E0FD1484
:40360000F0ED7046EE131313541F2429F582E43401F583C083C082E0FD900082E0FCED4CD082D083F08023EF75F00CA424DAF582E43400F583E0FF900081E075F005A4243C
:403640006BF582E43401F583EFF0AF06EF131313541F2429F582E43401F583E0FF900082E0FEEF5E60047F0180027F0022900086EFF0E0FF75F005A42469F582E43401F53C
:4036800083E090008AF0EF75F005A42468F582E43401F583E090008BF0900086E075F005A42467F582E43401F583E090008CF01240F2905872E054FEF09001F0E025E02454
:4036C000F2F582E43401F583E0FEA3E0F5828E83E04480F090008AE0B40108A3E0FF1242528032E4900087F090008AE0FF900087E0FEC39F501F90008BE02E24F1F582E47F
:403700003401F583E0FF900088F0124252900087E004F080D39001B4E04401F0906474E04401F09001B4E0640160F8906474E054FEF0124C0490008CE025E0249EF582E44E
:403740003401F583EEF0A3EFF0900086E075F005A424B9F582E43401F583E0900089F0A3E0B4010DA3E0FF900089E0FD123ABC8035E4900087F090008AE0FF900087E0FE17
:40378000C39F502290008BE02E24F1F582E43401F583E0FF900088F0A3E0FD123ABC900087E004F080D09001F0E025E024F2F582E43401F583E0FEA3E0F5828E83E0547F25
:4037C000F0905872E04401F022900081122792E4900084F0124AD2123F3C124D1BE4900084F0900084E0C39408503DE4FF124B42124AE6900081122772E92402F9E43AFAE7
:40380000900084E075F002A485F08329F9E5833AFAEE8FF0122542124D23123F3C124D1B900084E004F080BAE4900084F0900084E0C3940340030238C6E4FFFEFDFCA3123A
:40384000275AE4900089F0900089E0C394205035E4FF124B4290008512272EC000C001C002C003124AE6EE3395E0FDFCD003D002D001D00012256190008512275A90008971
:40388000E004F080C290008512272278051226FB900081122772E92414F9E43AFA900084E075F002A485F08329F9E5833AFAEE8FF0122542124D23123F3C124D1B900084AC
:4038C000E004F002382D124D2322900081122792E4900084F0122517FFAEF0900224E0FCA3E0FDB50713ECB5060F900228E0FB900226E06B700302397CED6F7002EC6E6059
:40390000047F0180027F00900084EFF0900081122772122517FFAEF0900224EEF0A3EFF0900228E0900226F0EE540FFEEF54F0FFEEC4F854F0C868EFC4540F48FF124D4B6A
:40394000900226E0FF20E018900224E0A330E609905016E04401F08007905016E054FEF0EF20E118900224E0A330E709905017E04401F08007905017E054FEF0900084E095
:403980007018900081122772E92416F9E43AFA122481FF900227E06F602E900081122772E92416F9E43AFA122481FF900227F0FD900224E05430A3C4540FFFED5403FE25AD
:4039C000E025E04FFF124DE722900081122792E4900084F0A3F0124A6BE4900084F0EFA3F0124D99EF75F010A4FF900084E045F0F0A3E04FF0124DEDEF5403C454F0FE90A2
:403A00000084E04EF0A3E0F0900228E030E022124D3BEF60067E007F0180047E007F00EFC4333354C0FE900084E04EF0A3E0F08022905016E0541060067E007F0180047E25
:403A4000007F00EFC4333354C0FE900084E04EF0A3E0F0900228E030E123124D43EF60067E007F0180047E007F00EFC43333335480FE900084E04EF0A3E0F0802390501756
:403A8000E0541060067E007F0180047E007F00EFC43333335480FE900084E04EF0A3E0F0900084E0FEA3E0FF900081122772E92412F9E43AFAEE8FF01225422290008DEDA8
:403AC000F0EF25E02451F582E43401F583E090008EF0EF25E02452F582E43401F583E090008FF0A37401F0E0FE90008FE0FDEEA805088002C333D8FC900090F01245DB9073
:403B0000008EE0FF75F008905206122766C083C082E0FE900090E0F4FDEE5DD082D083F090008DE01460241460412402705D90008FE0FE75F008EF905000122766E5822E46
:403B4000F582E43583F5837408F02290008FE0FF90008EE075F008905000122766E5822FF582E43583F5837409F02290008FE0FF90008EE075F008905000122766E5822F16
:403B8000F582E43583F583748CF02290008FE0FF90008EE075F008905000122766E5822FF582E43583F5837408F02290007E12279290007E1227721237C990007E12277274
:403BC0001239C9124B1E90007E122772E9241AF9E43AFAEE8FF0122542124B3090007E122772E9241CF9E43AFAEE8FF0122542124DF71249F5E4FF120FAE90007E122772E8
:403C0000E9241FF9E43AFAEF12249A9000BEE0FF90007E122772E92420F9E43AFAEF12249A7F051234E5EF25E0FEC006124AF9D0E04FFFC0077F061234E5EF25E025E0FE7D
:403C4000D0E04EFFC0077F071234E5EF33333354F8FED0E04EFFC0077F081234E5EFC454F0FED0E04EFFC0077F091234E5EFC43354E0FED0E04EFF90007E122772E9241E22
:403C8000F9E43AFAEF12249A227B007A417900E4FFFE7D19FC124B0C9043007402F09040007408F09042007403F07B0C7A017908124C739046A1EFF07B007A4279227D08D8
:403CC0007C00124BCA9040007408F09042207451F0E4F517751604F515F514AF17AE16AD15AC14EC4D4E4F601D904225E054017015AF1774FFFBFAF9F81225618F178E169B
:403D00008D158C1480D5E4FFFEFDFCAB17AA16A915A814C31226D760297B007A4079047D037C01124BCA904004E4F0904006F09040087448F09040017402F09043A1E04424
:403D400001F022904E00742CF0A37414F0A37406F0A3F0A3E4F0A3F0A3741FF0904E08E4F0A3F0A3F0904E0EF0904E0CF0A3F0904E1404F0905880740AF0A3E4F0A3747AEA
:403D8000F0A3E4F0A37414F0A37405F0A37414F0A3E4F0A37411F0A37413F0A37411F0A304F0A37401F0A3E4F0A37402F0A37432F0A3742AF0A374ABF0A3745AF0A3E4F086
:403DC000A37458F0A3E4F0A37407F0A3E4F090589E04F0905B07E04418F090589A7405F0A37402F0A3E4F0A3F0905B88F0A3F0905B03E0549FF0E04440F02278FFE4F6D88C
:403E0000FD8500939000007F007E20F0A3DFFCDEFA7581181233381247D9023E58022B63E493A3F8E493A34003F68001F208DFF48029E493A3F85407240CC8C333C4540FB7
:403E40004420C8834004F456800146F6DFE4800B0102040810204080902D91E47E019360BCA3FF543F30E509541FFEE493A360010ECF54C025E060A840B8E493A3FAE493DB
:403E8000A3F8E493A3C8C582C8CAC583CAF0A3C8C582C8CAC583CADFE9DEE780BEE490007EF090007EE0FFC3940B4003023F3BE0FE75F005A42468F582E43401F583E090A9
:403EC0000081F0EE75F005A42469F582E43401F583E0FE900082F0EF75F005A424B9F582E43401F583E0900083F0EEB4010F900081E0FF900083E0FD123ABC8035E4900058
:403F000080F0900082E0FF900080E0FEC39F5022A3E02E24F1F582E43401F583E0FF90007FF0900083E0FD123ABC900080E004F080D090007EE004F0023EA222900249E0E5
:403F400004F0E01228163F70003F7F013F86023F8D033F94043F9B053FA2063FA9073FB0083FC0093FCB0A00003F6BE4900249F090513DE4F0905B58F090510D04F0229068
:403F8000510D7402F02290510D7404F02290510D7408F02290510D7410F02290510D7420F02290510D7440F02290510D7480F02290510DE4F090513D7420F0905B58F022AE
:403FC00090513D7440F0905B58F02290513D7480F0905B58F0229000A1EEF0A3EFF0A3ECF0A3EDF0EB70309000A3E0FEA3E0FF9000A2E02FFF9000A1E03EFEE4FCFD9000AB
:40400000A512275A9000A512272278011226E89000A512275A804D9000A3E0FEA3E0FF9000A2E02FFF9000A1E03EFEE4FCFD9000A512275A9000A512272E9000A4E025E010
:40404000FF9000A3E033FEE4FCFD1225619000A512275A9000A512272278021226E89000A512275A9000A512272222900240E0705D04F09049DB7404F0E4FDEDD394065002
:404080002274017E00A805088005C333CE33CED8F9C3941EEE940040079049DBEDF080030D80D87F1912493D7C2F7D9F7F191244987D077F19124A567F1912491B9049D75B
:4040C000E4F09049D67405F09049C87481F0E4900212F090020E7410F09043A5E04404F0124DB7124DBD124BD9124BE87F15124D5322AD07ED75F005A424B6F582E4340104
:40410000F583E090008DF0ED75F005A424B5F582E43401F583E0FE7FFF90008EF0A3EFF0ED75F005A424B7F582E43401F583E0A3E0900090F0124C3790008EE0FEA3E0FFEE
:40414000124C43906474E04402F0124D3390008DE0FF124D8790008DE0FF124D8D1244D7906474E054FDF0900090E0FF124D6F7FFF124D69229000A1EEF0A3EFF0A3ECF0C9
:40418000A3EDF09000A3E0FEA3E0FFD39000A2E09F9000A1E09E401B9000A3E0A3E09000A1E0FDA3E0A3CDF0A3EDF09000A1EEF0A3EFF0D39000A4E09B9000A3E09A400750
:4041C000AF03EAF0A3EFF09000A3E0FEA3E0FF9000A1E0FCA3E0FDD39FEC9E4006AE04AF0580002290511D7480F090512D74C0F090515D7412F09051CD74AAF0905872E485
:40420000F0905A107418F0905A887402F0905A987410F0905AC07404F0905AC37440F0905ACB7420F0905AD07408F0905AD37440F0FD7C027FDB7E5A1248D6905B0074F0FB
:40424000F0905B037440F09058767466F0A37446F022EF25E02451F582E43401F583E0FEEF25E02452F582E43401F583E0FD7C01ECA805088002C333D8FCFC75F008EE9036
:404280005000122766E5822DF582E43583F5837409F075F008EE905206122766E04CF012463D22900244E0704204F0906579E054F890007FF0E04405906579F0E054E790A7
:4042C000007FF0E0906579F0124A807F007E80124CDF7F007E80124CD3E4FF124DC9E4FFFE124CEB90659AE04410F0906579E04480F022900246E0704204F0906473E054C8
:40430000F890007FF0E04405906473F0E054E790007FF0E0906473F0124A957F007E80124D037F007E80124CF7E4FF124DD5E4FFFE124D0F906492E04410F0906473E04478
:4043400080F0221244D71247AD12466D12482F124DFB1249A17F0B12463D7F0C12463D1248AD123E9D7F0F12493D7C487D057F0F1244987D077F0F124A567F0F12491B9061
:4043800043ABE04420F0905872E04401F022900216E0701A04F0123D437F10124C2B7D077F1D124A567C4D7DFF7F1D1244989043AAE04401F09043D4E04401F0905877E06C
:4043C0004406F0904E00742CF09043A1E04401F0124D2B22C2D5E830E70FB2D5E4C39BFBE49AFAE499F9E498F8EC30E717B2D512440A122607E4C39BFBE49AFAE499F9E4C6
:4044000098F8800312260730D50DE4C39FFFE49EFEE49DFDE49CFC22900241E0703204F0906479E054C090007EF0E04409906479F0906499E04401F0A3E04401F07FEF7EBF
:4044400000124C8BE4FFFE124C97E4FFFE124CA3906479E04480F022900242E0703204F090647AE054C090007EF0E0440990647AF090649DE04401F0A3E04401F07FEF7EF9
:4044800000124CAFE4FFFE124CBBE4FFFE124CC790647AE04480F02290007EECF0A3EDF075F002EF904400122766E0FDA3E0900080CDF0A3EDF0EF75F002A42400FFE5F0F9
:4044C0003444FE90007EE0FCA3E0FD1248D6900080E0FEA3E0FF2290023DE0703004F0906577E054C0900091F0E0440A906577F090649BE04401F07FFF124D8D7F7F124D71
:4045000093E4FF124D8190649BE04410F0906577E04480F022905824E0540C7E007802CEC313CE13D8F92406FFE4EF242CFFE43401FEE4340CFDE433A907AA06AB05124CAE
:4045400073904609EFF02290582CE0540C7E007802CEC313CE13D8F92406FFE4EF2434FFE43401FEE4340CFDE433A907AA06AB05124C7390460BEFF022900247E070230491
:40458000F0905824E4F0905825E4F07F04124AAA7F02124BA89043A8E074FFF0E4FF124D5B229043A8E074FFF022900248E0702304F090582CE4F090582DE4F07F04124AED
:4045C000BE7F02124BB99043A8E074FFF0E4FF124D62229043A8E074FFF022EFC3940D502AEF25E02423F582E4345FF583E493FC740193F5828C83C083C082E0FEEF905F52
:404600003D93F4FFEE5FD082D083F022A907AE04EDA801088005CEC313CE13D8F930E0037F0C22AE02AD01EBA805088005CEC313CE13D8F930E0037F0E227F0222EFC39494
:404640000D5029EF25E02423F582E4345FF583E493FC740193F5828C83C083C082E0FEEF905F3D93FFEE4FD082D083F02290023BE0702804F0906494E04401F0A3E0440170
:40468000F07FFF7E00124C377FFF7E00124C437F04124D75906494E04410F022758600EF4E6023EF60010E8C838D828B958A858984E493A30586F0A31586E58545847002CC
:4046C0000595DFEDDEEBE4F59522ACEAADA08E838F82E493F9601CA3E493F5EAA3E493F5A0A3E49360F1FAA3E493F8A3E493F2DAF6D9E48DA08CEA2290007E740FF01242B8
:40470000A3906599E04410F0900243E0B40116E4F07F02124DCF90007EE0600414F080F67F01124DCF2290007E740FF01242F3906493E04410F0900245E0B40116E4F07F3D
:4047400002124DDB90007EE0600414F080F67F01124DDB227B017A507903124C73EF4402FD7B017A507903124C7F7B017A507913124C73EF4402FD7B017A507913124C7F6D
:40478000229000A1ECF0A3EDF0C3E09F9000A1E09E5007EF1F70011E8012D39000A2E09F9000A1E09E40050FEF70010E2290023CE0702504F0124A4174FFFFFE124C5BE4DB
:4047C000FFFE124C4FE4FF124D7B7F807E00124C67906498E04410F02290022D747FF0A304F07F7FEF601114FE75F008EF907800122766EEF01F80EC75F008EF90780012B3
:404800002766E4F022C0E0C083C082C085C084C086758600C0937593009001B4E054FEF0D093D086D084D085D082D083D0E032900239E0701C04F0E4FF124B53905841E094
:4048400054DFF0905ACFE054E7F0905ACFE04410F09043A7E04404F02290023EE0701C04F0E4FF124B64905840E054DFF0905AC7E054E7F0905AC7E04410F09043A7E04492
:4048800001F02290023FE0701C04F0E4FF124B75905842E054DFF0905AD7E054E7F0905AD7E04410F09043A7E04402F0227F01E4FEEEC39F501AEE25E024F2F582E43401BA
:4048C000F583E0FCA3E0F5828C837409F00E80E1E49001F0F022900091ECF0A3EDF0900092E08F828E83F0900091E0FDEF2401FFE43E8F82F583EDF0229000A1EEF0A3EF1B
:40490000F0E02DFF9000A1E03CFEEF2BFFEE3AFE7C007D031224ACE4FCFD22EF131313541F24C0FDE43444FCEF5407FF7401A807088002C333D8FC8D828C83F022EF13133A
:4049400013541F24C8FDE43444FCEF5407FF7401A807088002C333D8FC8D828C83F022EC4D6019ED60010C8B938A838982E4F0A3E583458270020593DDF3DCF175930022C6
:40498000EF2401FDE43E8D82F583E090008DF08F828E83E090008EF090008DE0FEA3E0FF2290023AE070107FB8124D6F7FFF124D6990023A7401F0906472E04401F022E478
:4049C000900081F0900081E0FFC3940B500B12366D900081E004F080EB22E490007EF090007EE0FFC3940B500B121B8590007EE004F080EB22E4900081F0900081E0FFC39D
:404A0000940B500B120003900081E004F080EB22E490007EF090007EE0FFC3940D500B1245DB90007EE004F080EB229043A0E04440F09043B0E04440F09043C2E04410F06F
:404A400022906497E04401F0E054FEF0A3E04401F0E054FEF022AE05EEC43354E0FE74802FF582E43444F583EEF022905141E054F0FFE4C4F854F0C868EFC4540F48FF2246
:404A8000906599E04401F0E054FEF0A3E04401F0E054FEF022906492E04401F0E054FEF0A3E04401F0E054FEF022905824E054F3F0E0FEEF540CFFEE4FF01245152290588A
:404AC0002CE054F3F0E0FEEF540CFFEE4FF01245472290024974FFF090510DE4F090513DF0905B58F022904E11E0FD7C00FE904E10E0FBEEFCEBFDFF229051F1E054087E69
:404B0000007803CEC313CE13D8F9FF228B938A838982EFF0A3EEF0A3EDF075930022124C11EE6480FCAD07EE44804F6002AE0422124C1EEE6480FCAD07EE44804F6002AE0C
:404B40000422904E01E05401FE64016003EF60F2AF0622905841E054F9F0E0FEEF5406FFEE4FF022905840E054EEF0E0FEEF5411FFEE4FF022905842E054EEF0E0FEEF544B
:404B800011FFEE4FF02290020B122792E4900213F0900215EDF02290020F122792E4900214F090020AEDF022905824E054FDF0E0FEEF5402FFEE4FF02290582CE054FDF0BB
:404BC000E0FEEF5402FFEE4FF0228B938A838982EDF0A3ECF075930022900209E0FF540FFEEF54F2F0AF0622900209E0FF54F0FEEF542FF0AF06229051F0E054F8FEEF547E
:404C0000074EF022906407E0FF7F477E6412498022906509E0FF7F497E6512498022906402E0FF7F427E6412498022904102E0FE5407FE4FFEF022AD07AC067F447E64120E
:404C400048D622AD07AC067F247E641248D622AD07AC067F077E641248D622AD07AC067F277E641248D622AD07AC067F377E641248D6228B938A838982E0759300FF228B3D
:404C8000938A838982EDF075930022AD07AC067F497E641248D622AD07AC067F297E641248D622AD07AC067F397E641248D622AD07AC067F4D7E641248D622AD07AC067F01
:404CC0002D7E641248D622AD07AC067F3D7E641248D622AD07AC067F097E651248D622AD07AC067F297E651248D622AD07AC067F397E651248D622AD07AC067F027E641269
:404D000048D622AD07AC067F227E641248D622AD07AC067F327E641248D622904E00E04401F022904E00E054FEF0229043A1E04401F022906577E0547FF022905B90E054EB
:404D400001FF22905B90E05404FF22E4FEEF905160F022EF547F9049CAF022905B81EFF0F022905B83EFF0F022906401EFF022906421EFF022906484EFF022906488EFF006
:404D80002290648BEFF02290640BEFF02290644BEFF02290642BEFF022905161E0FF227F1912491B22900209E0FF22900213E0FF22900214E0FF22E4900213F022E4900284
:404DC00014F02290647BEFF02290658AEFF022906578EFF022906482EFF022906477EFF022906478EFF022906475EFF022906465E0FF22124343221249BF22124A10223265
:404E00003232010000040001048000800105800480010B00050001140008000140000A00014C00020027005210085009300E3010051103181719171E1F2053216A28812E40
:404E40008D343F78C079807CC0006405826F830F840D88678B0D006502890F8A6F010014C001C466C5A0C6A0C70AC81AC9FFCAFFCBFFCC02CD0ECEF0D002DA04DD09DE0114
:404E8000E248E3A1E618E7B501011046024C084D02540855207C408940A320A680AA80AB20D010D220DE10E280EC040102544051410349FF4AFF4BFF4DA04F015018540F58
:404EC0005A085B085D995E016040628064406540668068406A806C406D206E8080808620880189018A128B128D068E7F8F11900692119410950796049708987F9C7F9D106B
:404F00009F04A118A240A303A407A608A818AA03B27FB480B680B71FBE54C053C106C543C6CEC752C83FC9FFCAFFCBFFCDAFCE07CF01D018D40FD804D90BDA0BDB05DC9076
:404F4000DD99E040E280E440E540E680E840EA80EC40ED20EE800103590080011A08200A400B220C080E201060131014041523180419601A201B102302280129102A212B9E
:404F8000032C402E012F30328434043609370139903A403D023E014008420443044620478049184A804B404F4050485101521959845A225C485D085E236614682069906AEA
:404FC000586B286C01734078017A047E207F22806082048511870989208D408E4499029D609E02A120A320A680AD20B440C00FC20FC40ECA01CC0ACE0CD052D21CD6FFD84F
:4050000060DE15E058E402E684E84001042B8208841088028A0590069E0FA801AA04B004B208B410B603BA02BC82BE14C016C102C5D2C611C712C83FC9FFCAFFCBFFCDAFF7
:40504000CE0FCF04D018D80BDA0BDB04DC09DD09DE02E040E2C0E440E540E6C0E8C0EAC0ECC0EEC0010535800181208204840187408A828B048C208D048E408F2090029142
:4050800001921596029716980899209A409B209D949E029F80A101A220A310A440A602A701A844AA02AB04AC08AF04B201B72AC07FC29FC44FCA09CC0DCE07D034D22CD68C
:4050C0003BDEC7E064E203E405E640E802EC08EE04010656030805110702091017201D021F0121022301250227012B042D102E013001311C320133303401350337103B205E
:405100003C2A3D203F05580B59055C995E02800182028301860488288A508C868E018F0290849430964898019A029C019E02A080A418A660AC84B07CB101B280B302B501CE
:40514000B603BA80BC80BD2ABE05C036C104C9FFCAFFCBFFCDA0CF01D018D804D904DA0BDB05DC99DD09DE02E040E280E440E540E680E840EA50EBA8EC40ED20EE50EFA82E
:4051800001076600100182031009080A080B810D200E04118013061580180219C41BC11C201D101E081F012010210523042520261A27822C802D802E2834043640370438B1
:4051C0000239803B803D223E0440204280454046024B205E015F0164086620680269106A206B0578457E107F84803082098304848285028612882089108F109101932094C2
:4052000020952A9712980899209A019B089C809D149F81A10BA314A470A68EA741A804A910AA20AC02AE10AF02B210B601B710C00FC20FC48DCAF0CC50CEE9D003D204DE3E
:40524000EBE01AE444E603E804EA10EC02EE4101087A0120020203080502072411301204130617011A011B401F012380250E2710293E2D0C2F223002313E334034043501B2
:405280003601378039203DA83F01403241054550462547CE483F49FF4AFF4BFF4DAF4E074F0150185407580B59045A0B5B0B5C995D995E01604062806440654066806840C1
:4052C0006A506BA86C406D206E506FA88086810282018418866088308A488E048F0490809401960298849B019C019E029F02A308A484A828AA50AC01AE02AF01B07CB1023A
:40530000B304B480B501B603B708B920BA80BC80BD20BE11BF01C060C101C9FFCAFFCBFFCDA0CF04D018D804D904DA04DB05DC99DD09DE02E040E2C0E440E540E6C0E8C029
:40534000EAC0ECC0EEC001096A0020018003A005400661072009100A400B110D020F041108120619401A081B811E051F11204221102208242025802624278029012B022C48
:40538000202D222E80312032403440362137043B423C083D014140469047114A084C014D084E40566A5C405D085F2060086210660867086F06734078807A107CA07D02801B
:4053C0000881808404870488208A048D838F8091D092029380950C9601988099359C049E019F01A010A104A242A320A401A608A741A880ABC0AC02AE04B040B703C01FC2C2
:405400005FC407CAF9CCFCCEC9D068D214D670D860DEBAE090E440E622EA01EE28010B6D010203090421058808120A010C060F091080112413801650181019201A401F41ED
:4054400020202201230A2440272029402A242C042E063102321034203680370438883A013B403F594120454049804A294C034E044F045160530254205551568857085D013D
:405480005E405F0462C06D506E0671017440762477407B517CA07D037E107F2480818282831086088720883089028C518F0290A89220931895089702995C9A509B049F081A
:4054C000A106A242A304A401A620A903ABB0AD09AF0CB240B406B724C0FBC2FBC43FCAEECC75CEF3D014D224D6D0DE1BE024E210E412E620E81BECD2EE01010C490402065E
:40550000240E0118201A081C301E06200C2222240E26102C3E300132013401363E3C2A3E40580A5C095E038304870188018A0290019282940C96309C169E29A030A20CA34A
:4055400008A401A642A828AA14AF02B040B101B280B308B43CB502B603B704BA80BC8ABDAAC050C102C9FFCAFFCBFFCDA0CF04D018D804D904DA04DC99DD09DE02E040E29C
:40558000C0E440E540E6C0E8C0EAC0ECC0EEC0010D3D0010040405400A930D800F081327140216801704181819401A811B401D141E801FA0220223252B42380239083D0CFC
:4055C0004120480159205A206004621078807B107D027F1082308303858087108B108CD18E809106960299209F02A120A304A401B404B540C0A2C2CDC4BECA09CE03D0049F
:40560000D208DECAE010E205E451E840010E174050410146224715483C49FF4AFF4BFF4DAF4E0F4F0450185A075D09604062C06440654066C068C06AC06CC06EC0010F14BD
:405640002C402D0143804801500451215380784079418120830291049602A304AB04B104B201D008D208DE0101150D8310A310A910AB01AC08AD20B005B101B404E010E297
:4056800003E680EA220116228101838285308601870C89288B148E049202950197029D169F29A501A742AA08AD0CAF30B001B140B208B380B404B53CB602B703BB80BCAAA2
:4056C000BD8AD807D907DB04DC99DE02011737000401800A401008198A1A4921D122082301294831803288381039023B045D105E2073807A107B408380840587108E808F73
:405700005090109111930495A09609971099609D029E80A310A510A680A880AC41B040B240B305B708C005C208C402CA0ACC0ACE07DE03E04BE210E460E880EA040118602E
:405740000118027F0303041005070604070809100A800B040C180D800E031106127F1311177F18011A121C7F1F40222024072608272029012A402B122C062E112F7F317FB9
:4057800033803480367F39803E403F44580759075B045C9980108308840286018B018C028E019208930294109E20A204A402A601AB04AC11AE02B010B101B203B308B41CDD
:4057C000B502B630B704BA08BC08BDAABE50C043C106C9FFCAFFCBFFCDA0CF01D018D40FD807D907DA0ADB07DC99DD99E040E280E440E540E680E840EA80EC40ED20EE804F
:4058000001196F00840380048005080644088009060C100D010E021040122114441584182019201A401B481D401E08210422222351240326092A402B062C022E182F023064
:405840001032123584370139203B013C203D443E0242A044014602491059405A0A5B2065206620682569846A306B016C066EA0728078807A807B207D207E807F08809482AF
:40588000058465884989208B408C058E809172920A93A09402950D9640971199149B809F01A104A381A424A530A610A740A810AA04AB80AD01AE42AF04B040B220B502B612
:4058C00005B710C0FDC2DDC4FDCA74CCD1CEF5D003D204D60FDE8BE048E423E610EA21EC44011A4440434102452446C3475E483F49FF4AFF4BFF4DAF4E074F015018540FC0
:405900005A085B085D995E016040628064406540668068406A806C406D206E8080188118820383038401851086128704887F89078B088F409106927F931194109604972030
:405940009807997F9A089E209F7FA101A312A406A580A611A880A97FAE40B27FB37FB480B580BE10BF14D807D904DC09011B6A000C0406051009340A200C200D800EA0103A
:40598000041120142015501E101F20272429012B402D022E102F10312032103408351036403701380239023B013D403F2542A444084608481049094A104B044DC04F8051CC
:4059C00081522A580859055A205B805E0C6102622863806480650A671079047B117D0281048204830485818602873088948C408D058F409114932094809501982099109AEE
:405A0000A09B819C0C9D889E089F20A024A240A301A410A502AA04AE08AF21B110B340B704C070C2F0C4E0CAE0CCF0CEF0D007D60FD806DE88E012E40AE685E808EA22EC53
:405A400004EE6001400753085F4064088808D420D620D88001410789048E408F04A704AF48B704EE40014222012005101820190B1A801B053E40538055015720598078046E
:405A80007B807C017F208008824085208A208D108E4091089680A104A704A904C0C0C610CE20D4E0D620E280E4C0EA2001431726202708300C58045B01648469088C909058
:405AC0002091089280990BA008A104A620A801AC04AF01B581C210DA40EA90EC100144027720DE0401451621085242552058025C105F02600262016740819083028A018FF2
:405B00000198029F20B402C802D407D607D803E206E80801461F1F066D01742078027B807C087D208120832184028B048E018F0490039410960297029D809E019F20A108F5
:405B4000A5B0A801A980AE42AF40B401E002E201E402E802014725080209020B080E084080430258085A026410664076807A407B807F0286408C088D089003950196029CD7
:405B8000289D809F20A108A384A582A722A902AC20B430C203D601D801E002E608E808EE080148133B20518055045C02640288018D83928099039F08A104AD08AF01B1024B
:405BC000CE10D460D680E840EC100149125C01610465048001810484018B088E4092809C019F08AC02B310D680D8C0E2C0E680EE40014C290180032007110B800E201010B0
:405C000013401640540457407A047F0481808402850188048A808B408F609003930895019C329D809EC09FA0A204A304A580A610ABA0B210B480C00FC20CC40EDE03E00485
:405C4000E40CE603EA09014D224801492051205402570459206B80730174047C80808181028301840585028F809002A002A120A304A820AC02AF01B020B120B3C0B421B73F
:405C800030D407D604E608EA06EC01EE02015008010109010B010D010F0111011B011D0101510203C0060C0A0300000C000631110E00408000003C7F0000007F0000804017
:405CC0000001001200002A201500148028180C033010000400070008007F800000003C800300407F800080000000084411560200000000000000FFFFFF00A0000418000011
:405D0000000500000004060B0B909901004000C0004040C000C000C000C000C00000000000000000000000000000000000180C0330003C00000000200006001100602A0080
:405D400015000000001031040E8000000000008000074008000080400001141228603C80031F800040000000000008055160020000000122502DFFFFFF00AF0F0418000028
:405D8000000000000008060605990903004000C0004040C000C000C000C000C00000000000000000000000000000000000071808030010200406011112800600117F000047
:405DC0000000077F0810000420180003400000407F018012000000007F000000007F80007F00008000000000000000400160010000000202D13DFFFFFF00A000041800004A
:405E0000000500000004040404999901004000C0004040C000C000C000C000C00000000000000000000000000000000000200440012200100000411400004080000101200C
:405E40002010080C000080000400A0804400080106000000000000804020040000100180000000000008220000000001000100088000800400040000A0001A00000000007C
:405E80000000462400000A8000200000408001000000000180049020080220021000000000000000000000188001001000000000000000FF00000070004000800003000CB5
:405EC0000303000F0000000000000005080FC700C00000000F00C0000F000F00000000001F000000E0000F00F0000F00FF00000000008D0000000200FF0000000000000063
:405F00000052605CA700060104005CAD0080010A005D2D0080010A805DAD00800105005E2D0080513C513C513C513C513C515C515C515C511C511C515C515C5ACB010204B5
:405F4000081080040810200110010000000000000000000000000000000000000000000000000000000000000000000000000000000000000000000000000000000000003B
:405F800000000000000000000000000000000000000000000000000000000000000000000000000000000000000000000000000000000000000000000000000000000000E1
:405FC00000000000000000000000000000000000000000000000000000000000000000000000000000000000000000000000000000000000000000000000000000000000A1
:406000000000000000000000000000000000000000000000000000000000000000000000000000000000000000000000000000000000000000000000000000000000000060
:406040000000000000000000000000000000000000000000000000000000000000000000000000000000000000000000000000000000000000000000000000000000000020
:0200000480007A
:0200000490006A
:0400000000000004F8
:0200000490105A
:0400000000000000FC
:0200000490501A
:020000000101FC
:0200000490303A
:02000000972047
:0200000490402A
:4000000000000000000000000000000000000000000000000000000000000000000000000000000000000000000000000000000000000000000000000000000000000000C0
:0200000490402A
:0600A0000E028069258BB1
:00000001FF
